{
  "_format": "hh3-artifact-1",
  "contractName": "NFTMarketplace",
  "sourceName": "contracts/NFTMarketplace.sol",
  "abi": [
    {
      "inputs": [
        {
          "internalType": "uint256",
          "name": "_marketplaceFee",
          "type": "uint256"
        },
        {
          "internalType": "address",
          "name": "_feeRecipient",
          "type": "address"
        }
      ],
      "stateMutability": "nonpayable",
      "type": "constructor"
    },
    {
      "anonymous": false,
      "inputs": [
        {
          "indexed": false,
          "internalType": "address",
          "name": "oldRecipient",
          "type": "address"
        },
        {
          "indexed": false,
          "internalType": "address",
          "name": "newRecipient",
          "type": "address"
        }
      ],
      "name": "FeeRecipientUpdated",
      "type": "event"
    },
    {
      "anonymous": false,
      "inputs": [
        {
          "indexed": false,
          "internalType": "uint256",
          "name": "oldFee",
          "type": "uint256"
        },
        {
          "indexed": false,
          "internalType": "uint256",
          "name": "newFee",
          "type": "uint256"
        }
      ],
      "name": "FeeUpdated",
      "type": "event"
    },
    {
      "anonymous": false,
      "inputs": [
        {
          "indexed": true,
          "internalType": "address",
          "name": "nftContract",
          "type": "address"
        },
        {
          "indexed": true,
          "internalType": "uint256",
          "name": "tokenId",
          "type": "uint256"
        },
        {
          "indexed": true,
          "internalType": "address",
          "name": "seller",
          "type": "address"
        },
        {
          "indexed": false,
          "internalType": "uint256",
          "name": "price",
          "type": "uint256"
        }
      ],
      "name": "Listed",
      "type": "event"
    },
    {
      "anonymous": false,
      "inputs": [
        {
          "indexed": true,
          "internalType": "address",
          "name": "nftContract",
          "type": "address"
        },
        {
          "indexed": true,
          "internalType": "uint256",
          "name": "tokenId",
          "type": "uint256"
        }
      ],
      "name": "ListingCancelled",
      "type": "event"
    },
    {
      "anonymous": false,
      "inputs": [
        {
          "indexed": true,
          "internalType": "address",
          "name": "nftContract",
          "type": "address"
        },
        {
          "indexed": true,
          "internalType": "uint256",
          "name": "tokenId",
          "type": "uint256"
        },
        {
          "indexed": false,
          "internalType": "uint256",
          "name": "newPrice",
          "type": "uint256"
        }
      ],
      "name": "ListingUpdated",
      "type": "event"
    },
    {
      "anonymous": false,
      "inputs": [
        {
          "indexed": true,
          "internalType": "uint256",
          "name": "orderId",
          "type": "uint256"
        },
        {
          "indexed": true,
          "internalType": "address",
          "name": "nftContract",
          "type": "address"
        },
        {
          "indexed": true,
          "internalType": "uint256",
          "name": "tokenId",
          "type": "uint256"
        },
        {
          "indexed": false,
          "internalType": "address",
          "name": "seller",
          "type": "address"
        },
        {
          "indexed": false,
          "internalType": "address",
          "name": "buyer",
          "type": "address"
        },
        {
          "indexed": false,
          "internalType": "uint256",
          "name": "price",
          "type": "uint256"
        }
      ],
      "name": "OrderAccepted",
      "type": "event"
    },
    {
      "anonymous": false,
      "inputs": [
        {
          "indexed": true,
          "internalType": "uint256",
          "name": "orderId",
          "type": "uint256"
        }
      ],
      "name": "OrderCancelled",
      "type": "event"
    },
    {
      "anonymous": false,
      "inputs": [
        {
          "indexed": true,
          "internalType": "uint256",
          "name": "orderId",
          "type": "uint256"
        },
        {
          "indexed": true,
          "internalType": "address",
          "name": "nftContract",
          "type": "address"
        },
        {
          "indexed": true,
          "internalType": "uint256",
          "name": "tokenId",
          "type": "uint256"
        },
        {
          "indexed": false,
          "internalType": "address",
          "name": "buyer",
          "type": "address"
        },
        {
          "indexed": false,
          "internalType": "uint256",
          "name": "price",
          "type": "uint256"
        }
      ],
      "name": "OrderCreated",
      "type": "event"
    },
    {
      "anonymous": false,
      "inputs": [
        {
          "indexed": true,
          "internalType": "address",
          "name": "previousOwner",
          "type": "address"
        },
        {
          "indexed": true,
          "internalType": "address",
          "name": "newOwner",
          "type": "address"
        }
      ],
      "name": "OwnershipTransferred",
      "type": "event"
    },
    {
      "anonymous": false,
      "inputs": [
        {
          "indexed": false,
          "internalType": "address",
          "name": "account",
          "type": "address"
        }
      ],
      "name": "Paused",
      "type": "event"
    },
    {
      "anonymous": false,
      "inputs": [
        {
          "indexed": true,
          "internalType": "address",
          "name": "nftContract",
          "type": "address"
        },
        {
          "indexed": true,
          "internalType": "uint256",
          "name": "tokenId",
          "type": "uint256"
        },
        {
          "indexed": true,
          "internalType": "address",
          "name": "buyer",
          "type": "address"
        },
        {
          "indexed": false,
          "internalType": "address",
          "name": "seller",
          "type": "address"
        },
        {
          "indexed": false,
          "internalType": "uint256",
          "name": "price",
          "type": "uint256"
        }
      ],
      "name": "Purchased",
      "type": "event"
    },
    {
      "anonymous": false,
      "inputs": [
        {
          "indexed": false,
          "internalType": "address",
          "name": "account",
          "type": "address"
        }
      ],
      "name": "Unpaused",
      "type": "event"
    },
    {
      "inputs": [],
      "name": "MAX_FEE",
      "outputs": [
        {
          "internalType": "uint256",
          "name": "",
          "type": "uint256"
        }
      ],
      "stateMutability": "view",
      "type": "function"
    },
    {
      "inputs": [
        {
          "internalType": "uint256",
          "name": "orderId",
          "type": "uint256"
        }
      ],
      "name": "acceptOrder",
      "outputs": [],
      "stateMutability": "nonpayable",
      "type": "function"
    },
    {
      "inputs": [
        {
          "internalType": "address",
          "name": "nftContract",
          "type": "address"
        },
        {
          "internalType": "uint256",
          "name": "tokenId",
          "type": "uint256"
        }
      ],
      "name": "buyNow",
      "outputs": [],
      "stateMutability": "payable",
      "type": "function"
    },
    {
      "inputs": [
        {
          "internalType": "address",
          "name": "nftContract",
          "type": "address"
        },
        {
          "internalType": "uint256",
          "name": "tokenId",
          "type": "uint256"
        }
      ],
      "name": "cancelListing",
      "outputs": [],
      "stateMutability": "nonpayable",
      "type": "function"
    },
    {
      "inputs": [
        {
          "internalType": "uint256",
          "name": "orderId",
          "type": "uint256"
        }
      ],
      "name": "cancelOrder",
      "outputs": [],
      "stateMutability": "nonpayable",
      "type": "function"
    },
    {
      "inputs": [
        {
          "internalType": "address",
          "name": "nftContract",
          "type": "address"
        },
        {
          "internalType": "uint256",
          "name": "tokenId",
          "type": "uint256"
        },
        {
          "internalType": "uint256",
          "name": "price",
          "type": "uint256"
        }
      ],
      "name": "createListing",
      "outputs": [],
      "stateMutability": "nonpayable",
      "type": "function"
    },
    {
      "inputs": [
        {
          "internalType": "address",
          "name": "nftContract",
          "type": "address"
        },
        {
          "internalType": "uint256",
          "name": "tokenId",
          "type": "uint256"
        }
      ],
      "name": "createOrder",
      "outputs": [],
      "stateMutability": "payable",
      "type": "function"
    },
    {
      "inputs": [],
      "name": "emergencyWithdraw",
      "outputs": [],
      "stateMutability": "nonpayable",
      "type": "function"
    },
    {
      "inputs": [],
      "name": "feeRecipient",
      "outputs": [
        {
          "internalType": "address",
          "name": "",
          "type": "address"
        }
      ],
      "stateMutability": "view",
      "type": "function"
    },
    {
      "inputs": [
        {
          "internalType": "address",
          "name": "nftContract",
          "type": "address"
        },
        {
          "internalType": "uint256",
          "name": "tokenId",
          "type": "uint256"
        }
      ],
      "name": "getActiveOrders",
      "outputs": [
        {
          "components": [
            {
              "internalType": "uint256",
              "name": "orderId",
              "type": "uint256"
            },
            {
              "internalType": "address",
              "name": "nftContract",
              "type": "address"
            },
            {
              "internalType": "uint256",
              "name": "tokenId",
              "type": "uint256"
            },
            {
              "internalType": "address",
              "name": "buyer",
              "type": "address"
            },
            {
              "internalType": "uint256",
              "name": "price",
              "type": "uint256"
            },
            {
              "internalType": "uint256",
              "name": "createdAt",
              "type": "uint256"
            },
            {
              "internalType": "bool",
              "name": "active",
              "type": "bool"
            }
          ],
          "internalType": "struct NFTMarketplace.Order[]",
          "name": "",
          "type": "tuple[]"
        }
      ],
      "stateMutability": "view",
      "type": "function"
    },
    {
      "inputs": [
        {
          "internalType": "address",
          "name": "nftContract",
          "type": "address"
        },
        {
          "internalType": "uint256",
          "name": "tokenId",
          "type": "uint256"
        }
      ],
      "name": "getHighestOrder",
      "outputs": [
        {
          "components": [
            {
              "internalType": "uint256",
              "name": "orderId",
              "type": "uint256"
            },
            {
              "internalType": "address",
              "name": "nftContract",
              "type": "address"
            },
            {
              "internalType": "uint256",
              "name": "tokenId",
              "type": "uint256"
            },
            {
              "internalType": "address",
              "name": "buyer",
              "type": "address"
            },
            {
              "internalType": "uint256",
              "name": "price",
              "type": "uint256"
            },
            {
              "internalType": "uint256",
              "name": "createdAt",
              "type": "uint256"
            },
            {
              "internalType": "bool",
              "name": "active",
              "type": "bool"
            }
          ],
          "internalType": "struct NFTMarketplace.Order",
          "name": "",
          "type": "tuple"
        }
      ],
      "stateMutability": "view",
      "type": "function"
    },
    {
      "inputs": [
        {
          "internalType": "address",
          "name": "nftContract",
          "type": "address"
        },
        {
          "internalType": "uint256",
          "name": "tokenId",
          "type": "uint256"
        }
      ],
      "name": "getListing",
      "outputs": [
        {
          "components": [
            {
              "internalType": "address",
              "name": "seller",
              "type": "address"
            },
            {
              "internalType": "uint256",
              "name": "price",
              "type": "uint256"
            },
            {
              "internalType": "uint256",
              "name": "createdAt",
              "type": "uint256"
            },
            {
              "internalType": "bool",
              "name": "active",
              "type": "bool"
            }
          ],
          "internalType": "struct NFTMarketplace.Listing",
          "name": "",
          "type": "tuple"
        }
      ],
      "stateMutability": "view",
      "type": "function"
    },
    {
      "inputs": [
        {
          "internalType": "address",
          "name": "nftContract",
          "type": "address"
        },
        {
          "internalType": "uint256",
          "name": "tokenId",
          "type": "uint256"
        }
      ],
      "name": "getSalesHistory",
      "outputs": [
        {
          "components": [
            {
              "internalType": "address",
              "name": "seller",
              "type": "address"
            },
            {
              "internalType": "address",
              "name": "buyer",
              "type": "address"
            },
            {
              "internalType": "uint256",
              "name": "price",
              "type": "uint256"
            },
            {
              "internalType": "uint256",
              "name": "timestamp",
              "type": "uint256"
            }
          ],
          "internalType": "struct NFTMarketplace.Sale[]",
          "name": "",
          "type": "tuple[]"
        }
      ],
      "stateMutability": "view",
      "type": "function"
    },
    {
      "inputs": [
        {
          "internalType": "address",
          "name": "user",
          "type": "address"
        }
      ],
      "name": "getUserOrders",
      "outputs": [
        {
          "components": [
            {
              "internalType": "uint256",
              "name": "orderId",
              "type": "uint256"
            },
            {
              "internalType": "address",
              "name": "nftContract",
              "type": "address"
            },
            {
              "internalType": "uint256",
              "name": "tokenId",
              "type": "uint256"
            },
            {
              "internalType": "address",
              "name": "buyer",
              "type": "address"
            },
            {
              "internalType": "uint256",
              "name": "price",
              "type": "uint256"
            },
            {
              "internalType": "uint256",
              "name": "createdAt",
              "type": "uint256"
            },
            {
              "internalType": "bool",
              "name": "active",
              "type": "bool"
            }
          ],
          "internalType": "struct NFTMarketplace.Order[]",
          "name": "",
          "type": "tuple[]"
        }
      ],
      "stateMutability": "view",
      "type": "function"
    },
    {
      "inputs": [
        {
          "internalType": "address",
          "name": "nftContract",
          "type": "address"
        },
        {
          "internalType": "uint256",
          "name": "tokenId",
          "type": "uint256"
        }
      ],
      "name": "isListed",
      "outputs": [
        {
          "internalType": "bool",
          "name": "",
          "type": "bool"
        }
      ],
      "stateMutability": "view",
      "type": "function"
    },
    {
      "inputs": [
        {
          "internalType": "address",
          "name": "",
          "type": "address"
        },
        {
          "internalType": "uint256",
          "name": "",
          "type": "uint256"
        }
      ],
      "name": "listings",
      "outputs": [
        {
          "internalType": "address",
          "name": "seller",
          "type": "address"
        },
        {
          "internalType": "uint256",
          "name": "price",
          "type": "uint256"
        },
        {
          "internalType": "uint256",
          "name": "createdAt",
          "type": "uint256"
        },
        {
          "internalType": "bool",
          "name": "active",
          "type": "bool"
        }
      ],
      "stateMutability": "view",
      "type": "function"
    },
    {
      "inputs": [],
      "name": "marketplaceFee",
      "outputs": [
        {
          "internalType": "uint256",
          "name": "",
          "type": "uint256"
        }
      ],
      "stateMutability": "view",
      "type": "function"
    },
    {
      "inputs": [
        {
          "internalType": "address",
          "name": "",
          "type": "address"
        },
        {
          "internalType": "address",
          "name": "",
          "type": "address"
        },
        {
          "internalType": "uint256",
          "name": "",
          "type": "uint256"
        },
        {
          "internalType": "bytes",
          "name": "",
          "type": "bytes"
        }
      ],
      "name": "onERC721Received",
      "outputs": [
        {
          "internalType": "bytes4",
          "name": "",
          "type": "bytes4"
        }
      ],
      "stateMutability": "pure",
      "type": "function"
    },
    {
      "inputs": [
        {
          "internalType": "uint256",
          "name": "",
          "type": "uint256"
        }
      ],
      "name": "orders",
      "outputs": [
        {
          "internalType": "uint256",
          "name": "orderId",
          "type": "uint256"
        },
        {
          "internalType": "address",
          "name": "nftContract",
          "type": "address"
        },
        {
          "internalType": "uint256",
          "name": "tokenId",
          "type": "uint256"
        },
        {
          "internalType": "address",
          "name": "buyer",
          "type": "address"
        },
        {
          "internalType": "uint256",
          "name": "price",
          "type": "uint256"
        },
        {
          "internalType": "uint256",
          "name": "createdAt",
          "type": "uint256"
        },
        {
          "internalType": "bool",
          "name": "active",
          "type": "bool"
        }
      ],
      "stateMutability": "view",
      "type": "function"
    },
    {
      "inputs": [],
      "name": "owner",
      "outputs": [
        {
          "internalType": "address",
          "name": "",
          "type": "address"
        }
      ],
      "stateMutability": "view",
      "type": "function"
    },
    {
      "inputs": [],
      "name": "pause",
      "outputs": [],
      "stateMutability": "nonpayable",
      "type": "function"
    },
    {
      "inputs": [],
      "name": "paused",
      "outputs": [
        {
          "internalType": "bool",
          "name": "",
          "type": "bool"
        }
      ],
      "stateMutability": "view",
      "type": "function"
    },
    {
      "inputs": [],
      "name": "renounceOwnership",
      "outputs": [],
      "stateMutability": "nonpayable",
      "type": "function"
    },
    {
      "inputs": [
        {
          "internalType": "address",
          "name": "newRecipient",
          "type": "address"
        }
      ],
      "name": "setFeeRecipient",
      "outputs": [],
      "stateMutability": "nonpayable",
      "type": "function"
    },
    {
      "inputs": [
        {
          "internalType": "uint256",
          "name": "newFee",
          "type": "uint256"
        }
      ],
      "name": "setMarketplaceFee",
      "outputs": [],
      "stateMutability": "nonpayable",
      "type": "function"
    },
    {
      "inputs": [],
      "name": "totalOrders",
      "outputs": [
        {
          "internalType": "uint256",
          "name": "",
          "type": "uint256"
        }
      ],
      "stateMutability": "view",
      "type": "function"
    },
    {
      "inputs": [
        {
          "internalType": "address",
          "name": "newOwner",
          "type": "address"
        }
      ],
      "name": "transferOwnership",
      "outputs": [],
      "stateMutability": "nonpayable",
      "type": "function"
    },
    {
      "inputs": [],
      "name": "unpause",
      "outputs": [],
      "stateMutability": "nonpayable",
      "type": "function"
    },
    {
      "inputs": [
        {
          "internalType": "address",
          "name": "nftContract",
          "type": "address"
        },
        {
          "internalType": "uint256",
          "name": "tokenId",
          "type": "uint256"
        },
        {
          "internalType": "uint256",
          "name": "newPrice",
          "type": "uint256"
        }
      ],
      "name": "updateListing",
      "outputs": [],
      "stateMutability": "nonpayable",
      "type": "function"
    },
    {
      "stateMutability": "payable",
      "type": "receive"
    }
  ],
  "bytecode": "0x608060405234801561000f575f5ffd5b50604051615231380380615231833981810160405281019061003191906102c8565b60015f819055505f60015f6101000a81548160ff02191690831515021790555061006d61006261016e60201b60201c565b61017560201b60201c565b6103e88211156100b2576040517f08c379a00000000000000000000000000000000000000000000000000000000081526004016100a990610360565b60405180910390fd5b5f73ffffffffffffffffffffffffffffffffffffffff168173ffffffffffffffffffffffffffffffffffffffff1603610120576040517f08c379a0000000000000000000000000000000000000000000000000000000008152600401610117906103c8565b60405180910390fd5b816002819055508060035f6101000a81548173ffffffffffffffffffffffffffffffffffffffff021916908373ffffffffffffffffffffffffffffffffffffffff16021790555050506103e6565b5f33905090565b5f60018054906101000a900473ffffffffffffffffffffffffffffffffffffffff169050816001806101000a81548173ffffffffffffffffffffffffffffffffffffffff021916908373ffffffffffffffffffffffffffffffffffffffff1602179055508173ffffffffffffffffffffffffffffffffffffffff168173ffffffffffffffffffffffffffffffffffffffff167f8be0079c531659141344cd1fd0a4f28419497f9722a3daafe3b4186f6b6457e060405160405180910390a35050565b5f5ffd5b5f819050919050565b61024d8161023b565b8114610257575f5ffd5b50565b5f8151905061026881610244565b92915050565b5f73ffffffffffffffffffffffffffffffffffffffff82169050919050565b5f6102978261026e565b9050919050565b6102a78161028d565b81146102b1575f5ffd5b50565b5f815190506102c28161029e565b92915050565b5f5f604083850312156102de576102dd610237565b5b5f6102eb8582860161025a565b92505060206102fc858286016102b4565b9150509250929050565b5f82825260208201905092915050565b7f46656520746f6f206869676800000000000000000000000000000000000000005f82015250565b5f61034a600c83610306565b915061035582610316565b602082019050919050565b5f6020820190508181035f8301526103778161033e565b9050919050565b7f496e76616c69642066656520726563697069656e7400000000000000000000005f82015250565b5f6103b2601583610306565b91506103bd8261037e565b602082019050919050565b5f6020820190508181035f8301526103df816103a6565b9050919050565b614e3e806103f35f395ff3fe6080604052600436106101c4575f3560e01c80638456cb59116100f6578063b2ddee0611610094578063e74b981b11610063578063e74b981b14610620578063ef18e9ed14610648578063f2fde38b14610670578063f772adf114610698576101cb565b8063b2ddee061461057c578063bc063e1a146105a4578063cdb3cd25146105ce578063db2e21bc1461060a576101cb565b80639407ea98116100d05780639407ea981461049a57806399a25bd9146104c2578063a85c38ef146104fe578063ab8aee1514610540576101cb565b80638456cb591461041e57806388700d1c146104345780638da5cb5b14610470576101cb565b8063469048401161016357806363c69f081161013d57806363c69f08146103865780636a166964146103c25780636c16b545146103ec578063715018a614610408576101cb565b8063469048401461030a578063514fcac7146103345780635c975abb1461035c576101cb565b8063150b7a021161019f578063150b7a02146102665780631d834409146102a257806324780c56146102cc5780633f4ba83a146102f4576101cb565b806207df30146101cf5780630e4bdc901461020e5780631329acba1461022a576101cb565b366101cb57005b5f5ffd5b3480156101da575f5ffd5b506101f560048036038101906101f0919061386e565b6106c0565b60405161020594939291906138e4565b60405180910390f35b6102286004803603810190610223919061386e565b610722565b005b348015610235575f5ffd5b50610250600480360381019061024b919061386e565b610b62565b60405161025d9190613a40565b60405180910390f35b348015610271575f5ffd5b5061028c60048036038101906102879190613ac1565b610cc8565b6040516102999190613b7f565b60405180910390f35b3480156102ad575f5ffd5b506102b6610cdc565b6040516102c39190613b98565b60405180910390f35b3480156102d7575f5ffd5b506102f260048036038101906102ed9190613bb1565b610ce5565b005b3480156102ff575f5ffd5b50610308611168565b005b348015610315575f5ffd5b5061031e61117a565b60405161032b9190613c01565b60405180910390f35b34801561033f575f5ffd5b5061035a60048036038101906103559190613c1a565b61119f565b005b348015610367575f5ffd5b5061037061139d565b60405161037d9190613c45565b60405180910390f35b348015610391575f5ffd5b506103ac60048036038101906103a79190613c5e565b6113b2565b6040516103b99190613dcc565b60405180910390f35b3480156103cd575f5ffd5b506103d66115b8565b6040516103e39190613b98565b60405180910390f35b6104066004803603810190610401919061386e565b6115be565b005b348015610413575f5ffd5b5061041c611add565b005b348015610429575f5ffd5b50610432611af0565b005b34801561043f575f5ffd5b5061045a6004803603810190610455919061386e565b611b02565b6040516104679190613e3f565b60405180910390f35b34801561047b575f5ffd5b50610484611beb565b6040516104919190613c01565b60405180910390f35b3480156104a5575f5ffd5b506104c060048036038101906104bb9190613c1a565b611c12565b005b3480156104cd575f5ffd5b506104e860048036038101906104e3919061386e565b611ca9565b6040516104f59190613dcc565b60405180910390f35b348015610509575f5ffd5b50610524600480360381019061051f9190613c1a565b611f84565b6040516105379796959493929190613e58565b60405180910390f35b34801561054b575f5ffd5b506105666004803603810190610561919061386e565b61200c565b6040516105739190613f51565b60405180910390f35b348015610587575f5ffd5b506105a2600480360381019061059d919061386e565b6121f0565b005b3480156105af575f5ffd5b506105b8612393565b6040516105c59190613b98565b60405180910390f35b3480156105d9575f5ffd5b506105f460048036038101906105ef919061386e565b612399565b6040516106019190613c45565b60405180910390f35b348015610615575f5ffd5b5061061e6124e3565b005b34801561062b575f5ffd5b5061064660048036038101906106419190613c5e565b6125e4565b005b348015610653575f5ffd5b5061066e60048036038101906106699190613c1a565b6126fc565b005b34801561067b575f5ffd5b5061069660048036038101906106919190613c5e565b612c95565b005b3480156106a3575f5ffd5b506106be60048036038101906106b99190613bb1565b612d17565b005b6006602052815f5260405f20602052805f5260405f205f9150915050805f015f9054906101000a900473ffffffffffffffffffffffffffffffffffffffff1690806001015490806002015490806003015f9054906101000a900460ff16905084565b61072a612ef6565b610732612f43565b5f60065f8473ffffffffffffffffffffffffffffffffffffffff1673ffffffffffffffffffffffffffffffffffffffff1681526020019081526020015f205f8381526020019081526020015f209050806003015f9054906101000a900460ff166107d1576040517f08c379a00000000000000000000000000000000000000000000000000000000081526004016107c890613fc4565b60405180910390fd5b8060010154341015610818576040517f08c379a000000000000000000000000000000000000000000000000000000000815260040161080f9061402c565b60405180910390fd5b3373ffffffffffffffffffffffffffffffffffffffff16815f015f9054906101000a900473ffffffffffffffffffffffffffffffffffffffff1673ffffffffffffffffffffffffffffffffffffffff16036108a8576040517f08c379a000000000000000000000000000000000000000000000000000000000815260040161089f90614094565b60405180910390fd5b5f839050815f015f9054906101000a900473ffffffffffffffffffffffffffffffffffffffff1673ffffffffffffffffffffffffffffffffffffffff168173ffffffffffffffffffffffffffffffffffffffff16636352211e856040518263ffffffff1660e01b815260040161091e9190613b98565b602060405180830381865afa158015610939573d5f5f3e3d5ffd5b505050506040513d601f19601f8201168201806040525081019061095d91906140c6565b73ffffffffffffffffffffffffffffffffffffffff16146109b3576040517f08c379a00000000000000000000000000000000000000000000000000000000081526004016109aa9061413b565b60405180910390fd5b5f826003015f6101000a81548160ff021916908315150217905550610a018484845f015f9054906101000a900473ffffffffffffffffffffffffffffffffffffffff16338660010154612f8d565b8160010154341115610ac6575f3373ffffffffffffffffffffffffffffffffffffffff16836001015434610a359190614186565b604051610a41906141e6565b5f6040518083038185875af1925050503d805f8114610a7b576040519150601f19603f3d011682016040523d82523d5f602084013e610a80565b606091505b5050905080610ac4576040517f08c379a0000000000000000000000000000000000000000000000000000000008152600401610abb90614244565b60405180910390fd5b505b3373ffffffffffffffffffffffffffffffffffffffff16838573ffffffffffffffffffffffffffffffffffffffff167f29cca5ea4e05e676b056a41330565d9745f632f8ca66a53b38ecd41df37bf90c855f015f9054906101000a900473ffffffffffffffffffffffffffffffffffffffff168660010154604051610b4c929190614262565b60405180910390a45050610b5e6134de565b5050565b606060075f8473ffffffffffffffffffffffffffffffffffffffff1673ffffffffffffffffffffffffffffffffffffffff1681526020019081526020015f205f8381526020019081526020015f20805480602002602001604051908101604052809291908181526020015f905b82821015610cbc578382905f5260205f2090600402016040518060800160405290815f82015f9054906101000a900473ffffffffffffffffffffffffffffffffffffffff1673ffffffffffffffffffffffffffffffffffffffff1673ffffffffffffffffffffffffffffffffffffffff168152602001600182015f9054906101000a900473ffffffffffffffffffffffffffffffffffffffff1673ffffffffffffffffffffffffffffffffffffffff1673ffffffffffffffffffffffffffffffffffffffff1681526020016002820154815260200160038201548152505081526020019060010190610bcf565b50505050905092915050565b5f63150b7a0260e01b905095945050505050565b5f600454905090565b610ced612ef6565b610cf5612f43565b5f8111610d37576040517f08c379a0000000000000000000000000000000000000000000000000000000008152600401610d2e906142d3565b60405180910390fd5b5f73ffffffffffffffffffffffffffffffffffffffff168373ffffffffffffffffffffffffffffffffffffffff1603610da5576040517f08c379a0000000000000000000000000000000000000000000000000000000008152600401610d9c9061433b565b60405180910390fd5b5f8390503373ffffffffffffffffffffffffffffffffffffffff168173ffffffffffffffffffffffffffffffffffffffff16636352211e856040518263ffffffff1660e01b8152600401610df99190613b98565b602060405180830381865afa158015610e14573d5f5f3e3d5ffd5b505050506040513d601f19601f82011682018060405250810190610e3891906140c6565b73ffffffffffffffffffffffffffffffffffffffff1614610e8e576040517f08c379a0000000000000000000000000000000000000000000000000000000008152600401610e85906143a3565b60405180910390fd5b8073ffffffffffffffffffffffffffffffffffffffff1663e985e9c533306040518363ffffffff1660e01b8152600401610ec99291906143c1565b602060405180830381865afa158015610ee4573d5f5f3e3d5ffd5b505050506040513d601f19601f82011682018060405250810190610f089190614412565b80610fb557503073ffffffffffffffffffffffffffffffffffffffff168173ffffffffffffffffffffffffffffffffffffffff1663081812fc856040518263ffffffff1660e01b8152600401610f5e9190613b98565b602060405180830381865afa158015610f79573d5f5f3e3d5ffd5b505050506040513d601f19601f82011682018060405250810190610f9d91906140c6565b73ffffffffffffffffffffffffffffffffffffffff16145b610ff4576040517f08c379a0000000000000000000000000000000000000000000000000000000008152600401610feb90614487565b60405180910390fd5b60405180608001604052803373ffffffffffffffffffffffffffffffffffffffff1681526020018381526020014281526020016001151581525060065f8673ffffffffffffffffffffffffffffffffffffffff1673ffffffffffffffffffffffffffffffffffffffff1681526020019081526020015f205f8581526020019081526020015f205f820151815f015f6101000a81548173ffffffffffffffffffffffffffffffffffffffff021916908373ffffffffffffffffffffffffffffffffffffffff16021790555060208201518160010155604082015181600201556060820151816003015f6101000a81548160ff0219169083151502179055509050503373ffffffffffffffffffffffffffffffffffffffff16838573ffffffffffffffffffffffffffffffffffffffff167f8b06cda60618abf2b2d07227f9dd63ec6349ca3269ce0eb18d49122a48362ad8856040516111529190613b98565b60405180910390a4506111636134de565b505050565b6111706134e7565b611178613565565b565b60035f9054906101000a900473ffffffffffffffffffffffffffffffffffffffff1681565b6111a7612ef6565b5f60055f8381526020019081526020015f209050806006015f9054906101000a900460ff1661120b576040517f08c379a0000000000000000000000000000000000000000000000000000000008152600401611202906144ef565b60405180910390fd5b3373ffffffffffffffffffffffffffffffffffffffff16816003015f9054906101000a900473ffffffffffffffffffffffffffffffffffffffff1673ffffffffffffffffffffffffffffffffffffffff161461129c576040517f08c379a000000000000000000000000000000000000000000000000000000000815260040161129390614557565b60405180910390fd5b5f816006015f6101000a81548160ff0219169083151502179055505f3373ffffffffffffffffffffffffffffffffffffffff1682600401546040516112e0906141e6565b5f6040518083038185875af1925050503d805f811461131a576040519150601f19603f3d011682016040523d82523d5f602084013e61131f565b606091505b5050905080611363576040517f08c379a000000000000000000000000000000000000000000000000000000000815260040161135a906145bf565b60405180910390fd5b827f61b9399f2f0f32ca39ce8d7be32caed5ec22fe07a6daba3a467ed479ec60658260405160405180910390a2505061139a6134de565b50565b5f60015f9054906101000a900460ff16905090565b60605f60095f8473ffffffffffffffffffffffffffffffffffffffff1673ffffffffffffffffffffffffffffffffffffffff1681526020019081526020015f2090505f818054905067ffffffffffffffff811115611413576114126145dd565b5b60405190808252806020026020018201604052801561144c57816020015b611439613739565b8152602001906001900390816114315790505b5090505f5f90505b82805490508110156115ad5760055f8483815481106114765761147561460a565b5b905f5260205f20015481526020019081526020015f206040518060e00160405290815f8201548152602001600182015f9054906101000a900473ffffffffffffffffffffffffffffffffffffffff1673ffffffffffffffffffffffffffffffffffffffff1673ffffffffffffffffffffffffffffffffffffffff16815260200160028201548152602001600382015f9054906101000a900473ffffffffffffffffffffffffffffffffffffffff1673ffffffffffffffffffffffffffffffffffffffff1673ffffffffffffffffffffffffffffffffffffffff1681526020016004820154815260200160058201548152602001600682015f9054906101000a900460ff1615151515815250508282815181106115955761159461460a565b5b60200260200101819052508080600101915050611454565b508092505050919050565b60025481565b6115c6612ef6565b6115ce612f43565b5f3411611610576040517f08c379a0000000000000000000000000000000000000000000000000000000008152600401611607906142d3565b60405180910390fd5b5f73ffffffffffffffffffffffffffffffffffffffff168273ffffffffffffffffffffffffffffffffffffffff160361167e576040517f08c379a00000000000000000000000000000000000000000000000000000000081526004016116759061433b565b60405180910390fd5b5f8290505f73ffffffffffffffffffffffffffffffffffffffff168173ffffffffffffffffffffffffffffffffffffffff16636352211e846040518263ffffffff1660e01b81526004016116d29190613b98565b602060405180830381865afa1580156116ed573d5f5f3e3d5ffd5b505050506040513d601f19601f8201168201806040525081019061171191906140c6565b73ffffffffffffffffffffffffffffffffffffffff1603611767576040517f08c379a000000000000000000000000000000000000000000000000000000000815260040161175e90614681565b60405180910390fd5b3373ffffffffffffffffffffffffffffffffffffffff168173ffffffffffffffffffffffffffffffffffffffff16636352211e846040518263ffffffff1660e01b81526004016117b79190613b98565b602060405180830381865afa1580156117d2573d5f5f3e3d5ffd5b505050506040513d601f19601f820116820180604052508101906117f691906140c6565b73ffffffffffffffffffffffffffffffffffffffff160361184c576040517f08c379a0000000000000000000000000000000000000000000000000000000008152600401611843906146e9565b60405180910390fd5b5f60045f81548092919061185f90614707565b9190505590506040518060e001604052808281526020018573ffffffffffffffffffffffffffffffffffffffff1681526020018481526020013373ffffffffffffffffffffffffffffffffffffffff1681526020013481526020014281526020016001151581525060055f8381526020019081526020015f205f820151815f01556020820151816001015f6101000a81548173ffffffffffffffffffffffffffffffffffffffff021916908373ffffffffffffffffffffffffffffffffffffffff160217905550604082015181600201556060820151816003015f6101000a81548173ffffffffffffffffffffffffffffffffffffffff021916908373ffffffffffffffffffffffffffffffffffffffff1602179055506080820151816004015560a0820151816005015560c0820151816006015f6101000a81548160ff02191690831515021790555090505060085f8573ffffffffffffffffffffffffffffffffffffffff1673ffffffffffffffffffffffffffffffffffffffff1681526020019081526020015f205f8481526020019081526020015f2081908060018154018082558091505060019003905f5260205f20015f909190919091505560095f3373ffffffffffffffffffffffffffffffffffffffff1673ffffffffffffffffffffffffffffffffffffffff1681526020019081526020015f2081908060018154018082558091505060019003905f5260205f20015f9091909190915055828473ffffffffffffffffffffffffffffffffffffffff16827f01eb91f5dcefe786687093f16ff50592c3375c92c1678a2001576ed7b66000143334604051611ac7929190614262565b60405180910390a45050611ad96134de565b5050565b611ae56134e7565b611aee5f6135c6565b565b611af86134e7565b611b00613688565b565b611b0a61379d565b60065f8473ffffffffffffffffffffffffffffffffffffffff1673ffffffffffffffffffffffffffffffffffffffff1681526020019081526020015f205f8381526020019081526020015f206040518060800160405290815f82015f9054906101000a900473ffffffffffffffffffffffffffffffffffffffff1673ffffffffffffffffffffffffffffffffffffffff1673ffffffffffffffffffffffffffffffffffffffff1681526020016001820154815260200160028201548152602001600382015f9054906101000a900460ff161515151581525050905092915050565b5f60018054906101000a900473ffffffffffffffffffffffffffffffffffffffff16905090565b611c1a6134e7565b6103e8811115611c5f576040517f08c379a0000000000000000000000000000000000000000000000000000000008152600401611c5690614798565b60405180910390fd5b5f6002549050816002819055507f528d9479e9f9889a87a3c30c7f7ba537e5e59c4c85a37733b16e57c62df613028183604051611c9d9291906147b6565b60405180910390a15050565b60605f60085f8573ffffffffffffffffffffffffffffffffffffffff1673ffffffffffffffffffffffffffffffffffffffff1681526020019081526020015f205f8481526020019081526020015f2090505f5f90505f5f90505b8280549050811015611d6c5760055f848381548110611d2557611d2461460a565b5b905f5260205f20015481526020019081526020015f206006015f9054906101000a900460ff1615611d5f578180611d5b90614707565b9250505b8080600101915050611d03565b505f8167ffffffffffffffff811115611d8857611d876145dd565b5b604051908082528060200260200182016040528015611dc157816020015b611dae613739565b815260200190600190039081611da65790505b5090505f5f90505f5f90505b8480549050811015611f765760055f868381548110611def57611dee61460a565b5b905f5260205f20015481526020019081526020015f206006015f9054906101000a900460ff1615611f695760055f868381548110611e3057611e2f61460a565b5b905f5260205f20015481526020019081526020015f206040518060e00160405290815f8201548152602001600182015f9054906101000a900473ffffffffffffffffffffffffffffffffffffffff1673ffffffffffffffffffffffffffffffffffffffff1673ffffffffffffffffffffffffffffffffffffffff16815260200160028201548152602001600382015f9054906101000a900473ffffffffffffffffffffffffffffffffffffffff1673ffffffffffffffffffffffffffffffffffffffff1673ffffffffffffffffffffffffffffffffffffffff1681526020016004820154815260200160058201548152602001600682015f9054906101000a900460ff161515151581525050838381518110611f4f57611f4e61460a565b5b60200260200101819052508180611f6590614707565b9250505b8080600101915050611dcd565b508194505050505092915050565b6005602052805f5260405f205f91509050805f015490806001015f9054906101000a900473ffffffffffffffffffffffffffffffffffffffff1690806002015490806003015f9054906101000a900473ffffffffffffffffffffffffffffffffffffffff1690806004015490806005015490806006015f9054906101000a900460ff16905087565b612014613739565b5f60085f8573ffffffffffffffffffffffffffffffffffffffff1673ffffffffffffffffffffffffffffffffffffffff1681526020019081526020015f205f8481526020019081526020015f20905061206b613739565b5f5f90505f5f90505b83805490508110156121e3575f60055f8684815481106120975761209661460a565b5b905f5260205f20015481526020019081526020015f209050806006015f9054906101000a900460ff1680156120cf5750828160040154115b156121d557806040518060e00160405290815f8201548152602001600182015f9054906101000a900473ffffffffffffffffffffffffffffffffffffffff1673ffffffffffffffffffffffffffffffffffffffff1673ffffffffffffffffffffffffffffffffffffffff16815260200160028201548152602001600382015f9054906101000a900473ffffffffffffffffffffffffffffffffffffffff1673ffffffffffffffffffffffffffffffffffffffff1673ffffffffffffffffffffffffffffffffffffffff1681526020016004820154815260200160058201548152602001600682015f9054906101000a900460ff1615151515815250509350806004015492505b508080600101915050612074565b5081935050505092915050565b6121f8612ef6565b5f60065f8473ffffffffffffffffffffffffffffffffffffffff1673ffffffffffffffffffffffffffffffffffffffff1681526020019081526020015f205f8381526020019081526020015f209050806003015f9054906101000a900460ff16612297576040517f08c379a000000000000000000000000000000000000000000000000000000000815260040161228e90613fc4565b60405180910390fd5b3373ffffffffffffffffffffffffffffffffffffffff16815f015f9054906101000a900473ffffffffffffffffffffffffffffffffffffffff1673ffffffffffffffffffffffffffffffffffffffff1614612327576040517f08c379a000000000000000000000000000000000000000000000000000000000815260040161231e90614827565b60405180910390fd5b5f816003015f6101000a81548160ff021916908315150217905550818373ffffffffffffffffffffffffffffffffffffffff167f93ec4766fcd2d9dfdceab8f2e13ba0d9d826645cf03167fdb92b3b7359b5248c60405160405180910390a35061238f6134de565b5050565b6103e881565b5f5f60065f8573ffffffffffffffffffffffffffffffffffffffff1673ffffffffffffffffffffffffffffffffffffffff1681526020019081526020015f205f8481526020019081526020015f209050806003015f9054906101000a900460ff16612407575f9150506124dd565b8373ffffffffffffffffffffffffffffffffffffffff16636352211e846040518263ffffffff1660e01b81526004016124409190613b98565b602060405180830381865afa92505050801561247a57506040513d601f19601f8201168201806040525081019061247791906140c6565b60015b612487575f9150506124dd565b815f015f9054906101000a900473ffffffffffffffffffffffffffffffffffffffff1673ffffffffffffffffffffffffffffffffffffffff168173ffffffffffffffffffffffffffffffffffffffff1614925050505b92915050565b6124eb6134e7565b5f4790505f8111612531576040517f08c379a00000000000000000000000000000000000000000000000000000000081526004016125289061488f565b60405180910390fd5b5f61253a611beb565b73ffffffffffffffffffffffffffffffffffffffff168260405161255d906141e6565b5f6040518083038185875af1925050503d805f8114612597576040519150601f19603f3d011682016040523d82523d5f602084013e61259c565b606091505b50509050806125e0576040517f08c379a00000000000000000000000000000000000000000000000000000000081526004016125d7906148f7565b60405180910390fd5b5050565b6125ec6134e7565b5f73ffffffffffffffffffffffffffffffffffffffff168173ffffffffffffffffffffffffffffffffffffffff160361265a576040517f08c379a00000000000000000000000000000000000000000000000000000000081526004016126519061495f565b60405180910390fd5b5f60035f9054906101000a900473ffffffffffffffffffffffffffffffffffffffff1690508160035f6101000a81548173ffffffffffffffffffffffffffffffffffffffff021916908373ffffffffffffffffffffffffffffffffffffffff1602179055507faaebcf1bfa00580e41d966056b48521fa9f202645c86d4ddf28113e617c1b1d381836040516126f09291906143c1565b60405180910390a15050565b612704612ef6565b61270c612f43565b5f60055f8381526020019081526020015f209050806006015f9054906101000a900460ff16612770576040517f08c379a0000000000000000000000000000000000000000000000000000000008152600401612767906144ef565b60405180910390fd5b5f816001015f9054906101000a900473ffffffffffffffffffffffffffffffffffffffff1690505f8173ffffffffffffffffffffffffffffffffffffffff16636352211e84600201546040518263ffffffff1660e01b81526004016127d59190613b98565b602060405180830381865afa1580156127f0573d5f5f3e3d5ffd5b505050506040513d601f19601f8201168201806040525081019061281491906140c6565b90503373ffffffffffffffffffffffffffffffffffffffff168173ffffffffffffffffffffffffffffffffffffffff1614612884576040517f08c379a000000000000000000000000000000000000000000000000000000000815260040161287b906143a3565b60405180910390fd5b8173ffffffffffffffffffffffffffffffffffffffff1663e985e9c533306040518363ffffffff1660e01b81526004016128bf9291906143c1565b602060405180830381865afa1580156128da573d5f5f3e3d5ffd5b505050506040513d601f19601f820116820180604052508101906128fe9190614412565b806129af57503073ffffffffffffffffffffffffffffffffffffffff168273ffffffffffffffffffffffffffffffffffffffff1663081812fc85600201546040518263ffffffff1660e01b81526004016129589190613b98565b602060405180830381865afa158015612973573d5f5f3e3d5ffd5b505050506040513d601f19601f8201168201806040525081019061299791906140c6565b73ffffffffffffffffffffffffffffffffffffffff16145b6129ee576040517f08c379a00000000000000000000000000000000000000000000000000000000081526004016129e590614487565b60405180910390fd5b5f836006015f6101000a81548160ff02191690831515021790555060065f846001015f9054906101000a900473ffffffffffffffffffffffffffffffffffffffff1673ffffffffffffffffffffffffffffffffffffffff1673ffffffffffffffffffffffffffffffffffffffff1681526020019081526020015f205f846002015481526020019081526020015f206003015f9054906101000a900460ff1615612b8a575f60065f856001015f9054906101000a900473ffffffffffffffffffffffffffffffffffffffff1673ffffffffffffffffffffffffffffffffffffffff1673ffffffffffffffffffffffffffffffffffffffff1681526020019081526020015f205f856002015481526020019081526020015f206003015f6101000a81548160ff0219169083151502179055508260020154836001015f9054906101000a900473ffffffffffffffffffffffffffffffffffffffff1673ffffffffffffffffffffffffffffffffffffffff167f93ec4766fcd2d9dfdceab8f2e13ba0d9d826645cf03167fdb92b3b7359b5248c60405160405180910390a35b612be5836001015f9054906101000a900473ffffffffffffffffffffffffffffffffffffffff16846002015433866003015f9054906101000a900473ffffffffffffffffffffffffffffffffffffffff168760040154612f8d565b8260020154836001015f9054906101000a900473ffffffffffffffffffffffffffffffffffffffff1673ffffffffffffffffffffffffffffffffffffffff16857f12b77039d683045f21c8a4ac06b39728844a7e3e7b16f1711ed6ddb22f8b0e4933876003015f9054906101000a900473ffffffffffffffffffffffffffffffffffffffff168860040154604051612c7f9392919061497d565b60405180910390a4505050612c926134de565b50565b612c9d6134e7565b5f73ffffffffffffffffffffffffffffffffffffffff168173ffffffffffffffffffffffffffffffffffffffff1603612d0b576040517f08c379a0000000000000000000000000000000000000000000000000000000008152600401612d0290614a22565b60405180910390fd5b612d14816135c6565b50565b612d1f612ef6565b5f60065f8573ffffffffffffffffffffffffffffffffffffffff1673ffffffffffffffffffffffffffffffffffffffff1681526020019081526020015f205f8481526020019081526020015f209050806003015f9054906101000a900460ff16612dbe576040517f08c379a0000000000000000000000000000000000000000000000000000000008152600401612db590613fc4565b60405180910390fd5b3373ffffffffffffffffffffffffffffffffffffffff16815f015f9054906101000a900473ffffffffffffffffffffffffffffffffffffffff1673ffffffffffffffffffffffffffffffffffffffff1614612e4e576040517f08c379a0000000000000000000000000000000000000000000000000000000008152600401612e4590614827565b60405180910390fd5b5f8211612e90576040517f08c379a0000000000000000000000000000000000000000000000000000000008152600401612e87906142d3565b60405180910390fd5b818160010181905550828473ffffffffffffffffffffffffffffffffffffffff167f3e11d82182e9689c0f7ffc3ce2a4a057e1fc080032c0dcce9c269258c874a86c84604051612ee09190613b98565b60405180910390a350612ef16134de565b505050565b60025f5403612f3a576040517f08c379a0000000000000000000000000000000000000000000000000000000008152600401612f3190614a8a565b60405180910390fd5b60025f81905550565b612f4b61139d565b15612f8b576040517f08c379a0000000000000000000000000000000000000000000000000000000008152600401612f8290614af2565b60405180910390fd5b565b5f8590505f61271060025484612fa39190614b10565b612fad9190614b7e565b90505f8184612fbc9190614186565b90505f5f90505f5f90508973ffffffffffffffffffffffffffffffffffffffff16632a55205a8a886040518363ffffffff1660e01b81526004016130019291906147b6565b6040805180830381865afa92505050801561303a57506040513d601f19601f820116820180604052508101906130379190614bc2565b60015b156130a3575f73ffffffffffffffffffffffffffffffffffffffff168273ffffffffffffffffffffffffffffffffffffffff161415801561307a57505f81115b80156130865750848111155b156130a057819250809350838561309d9190614186565b94505b50505b8473ffffffffffffffffffffffffffffffffffffffff166342842e0e89898c6040518463ffffffff1660e01b81526004016130e09392919061497d565b5f604051808303815f87803b1580156130f7575f5ffd5b505af1158015613109573d5f5f3e3d5ffd5b505050505f8211801561314857505f73ffffffffffffffffffffffffffffffffffffffff168173ffffffffffffffffffffffffffffffffffffffff1614155b156131f7575f8173ffffffffffffffffffffffffffffffffffffffff1683604051613172906141e6565b5f6040518083038185875af1925050503d805f81146131ac576040519150601f19603f3d011682016040523d82523d5f602084013e6131b1565b606091505b50509050806131f5576040517f08c379a00000000000000000000000000000000000000000000000000000000081526004016131ec90614c4a565b60405180910390fd5b505b5f8873ffffffffffffffffffffffffffffffffffffffff168460405161321c906141e6565b5f6040518083038185875af1925050503d805f8114613256576040519150601f19603f3d011682016040523d82523d5f602084013e61325b565b606091505b505090508061329f576040517f08c379a000000000000000000000000000000000000000000000000000000000815260040161329690614cb2565b60405180910390fd5b5f851115613372575f60035f9054906101000a900473ffffffffffffffffffffffffffffffffffffffff1673ffffffffffffffffffffffffffffffffffffffff16866040516132ed906141e6565b5f6040518083038185875af1925050503d805f8114613327576040519150601f19603f3d011682016040523d82523d5f602084013e61332c565b606091505b5050905080613370576040517f08c379a000000000000000000000000000000000000000000000000000000000815260040161336790614d1a565b60405180910390fd5b505b60075f8c73ffffffffffffffffffffffffffffffffffffffff1673ffffffffffffffffffffffffffffffffffffffff1681526020019081526020015f205f8b81526020019081526020015f2060405180608001604052808b73ffffffffffffffffffffffffffffffffffffffff1681526020018a73ffffffffffffffffffffffffffffffffffffffff16815260200189815260200142815250908060018154018082558091505060019003905f5260205f2090600402015f909190919091505f820151815f015f6101000a81548173ffffffffffffffffffffffffffffffffffffffff021916908373ffffffffffffffffffffffffffffffffffffffff1602179055506020820151816001015f6101000a81548173ffffffffffffffffffffffffffffffffffffffff021916908373ffffffffffffffffffffffffffffffffffffffff160217905550604082015181600201556060820151816003015550505050505050505050505050565b60015f81905550565b6134ef6136e9565b73ffffffffffffffffffffffffffffffffffffffff1661350d611beb565b73ffffffffffffffffffffffffffffffffffffffff1614613563576040517f08c379a000000000000000000000000000000000000000000000000000000000815260040161355a90614d82565b60405180910390fd5b565b61356d6136f0565b5f60015f6101000a81548160ff0219169083151502179055507f5db9ee0a495bf2e6ff9c91a7834c1ba4fdd244a5e8aa4e537bd38aeae4b073aa6135af6136e9565b6040516135bc9190613c01565b60405180910390a1565b5f60018054906101000a900473ffffffffffffffffffffffffffffffffffffffff169050816001806101000a81548173ffffffffffffffffffffffffffffffffffffffff021916908373ffffffffffffffffffffffffffffffffffffffff1602179055508173ffffffffffffffffffffffffffffffffffffffff168173ffffffffffffffffffffffffffffffffffffffff167f8be0079c531659141344cd1fd0a4f28419497f9722a3daafe3b4186f6b6457e060405160405180910390a35050565b613690612f43565b6001805f6101000a81548160ff0219169083151502179055507f62e78cea01bee320cd4e420270b5ea74000d11b0c9f74754ebdbfc544b05a2586136d26136e9565b6040516136df9190613c01565b60405180910390a1565b5f33905090565b6136f861139d565b613737576040517f08c379a000000000000000000000000000000000000000000000000000000000815260040161372e90614dea565b60405180910390fd5b565b6040518060e001604052805f81526020015f73ffffffffffffffffffffffffffffffffffffffff1681526020015f81526020015f73ffffffffffffffffffffffffffffffffffffffff1681526020015f81526020015f81526020015f151581525090565b60405180608001604052805f73ffffffffffffffffffffffffffffffffffffffff1681526020015f81526020015f81526020015f151581525090565b5f5ffd5b5f5ffd5b5f73ffffffffffffffffffffffffffffffffffffffff82169050919050565b5f61380a826137e1565b9050919050565b61381a81613800565b8114613824575f5ffd5b50565b5f8135905061383581613811565b92915050565b5f819050919050565b61384d8161383b565b8114613857575f5ffd5b50565b5f8135905061386881613844565b92915050565b5f5f60408385031215613884576138836137d9565b5b5f61389185828601613827565b92505060206138a28582860161385a565b9150509250929050565b6138b581613800565b82525050565b6138c48161383b565b82525050565b5f8115159050919050565b6138de816138ca565b82525050565b5f6080820190506138f75f8301876138ac565b61390460208301866138bb565b61391160408301856138bb565b61391e60608301846138d5565b95945050505050565b5f81519050919050565b5f82825260208201905092915050565b5f819050602082019050919050565b61395981613800565b82525050565b6139688161383b565b82525050565b608082015f8201516139825f850182613950565b5060208201516139956020850182613950565b5060408201516139a8604085018261395f565b5060608201516139bb606085018261395f565b50505050565b5f6139cc838361396e565b60808301905092915050565b5f602082019050919050565b5f6139ee82613927565b6139f88185613931565b9350613a0383613941565b805f5b83811015613a33578151613a1a88826139c1565b9750613a25836139d8565b925050600181019050613a06565b5085935050505092915050565b5f6020820190508181035f830152613a5881846139e4565b905092915050565b5f5ffd5b5f5ffd5b5f5ffd5b5f5f83601f840112613a8157613a80613a60565b5b8235905067ffffffffffffffff811115613a9e57613a9d613a64565b5b602083019150836001820283011115613aba57613ab9613a68565b5b9250929050565b5f5f5f5f5f60808688031215613ada57613ad96137d9565b5b5f613ae788828901613827565b9550506020613af888828901613827565b9450506040613b098882890161385a565b935050606086013567ffffffffffffffff811115613b2a57613b296137dd565b5b613b3688828901613a6c565b92509250509295509295909350565b5f7fffffffff0000000000000000000000000000000000000000000000000000000082169050919050565b613b7981613b45565b82525050565b5f602082019050613b925f830184613b70565b92915050565b5f602082019050613bab5f8301846138bb565b92915050565b5f5f5f60608486031215613bc857613bc76137d9565b5b5f613bd586828701613827565b9350506020613be68682870161385a565b9250506040613bf78682870161385a565b9150509250925092565b5f602082019050613c145f8301846138ac565b92915050565b5f60208284031215613c2f57613c2e6137d9565b5b5f613c3c8482850161385a565b91505092915050565b5f602082019050613c585f8301846138d5565b92915050565b5f60208284031215613c7357613c726137d9565b5b5f613c8084828501613827565b91505092915050565b5f81519050919050565b5f82825260208201905092915050565b5f819050602082019050919050565b613cbb816138ca565b82525050565b60e082015f820151613cd55f85018261395f565b506020820151613ce86020850182613950565b506040820151613cfb604085018261395f565b506060820151613d0e6060850182613950565b506080820151613d21608085018261395f565b5060a0820151613d3460a085018261395f565b5060c0820151613d4760c0850182613cb2565b50505050565b5f613d588383613cc1565b60e08301905092915050565b5f602082019050919050565b5f613d7a82613c89565b613d848185613c93565b9350613d8f83613ca3565b805f5b83811015613dbf578151613da68882613d4d565b9750613db183613d64565b925050600181019050613d92565b5085935050505092915050565b5f6020820190508181035f830152613de48184613d70565b905092915050565b608082015f820151613e005f850182613950565b506020820151613e13602085018261395f565b506040820151613e26604085018261395f565b506060820151613e396060850182613cb2565b50505050565b5f608082019050613e525f830184613dec565b92915050565b5f60e082019050613e6b5f83018a6138bb565b613e7860208301896138ac565b613e8560408301886138bb565b613e9260608301876138ac565b613e9f60808301866138bb565b613eac60a08301856138bb565b613eb960c08301846138d5565b98975050505050505050565b60e082015f820151613ed95f85018261395f565b506020820151613eec6020850182613950565b506040820151613eff604085018261395f565b506060820151613f126060850182613950565b506080820151613f25608085018261395f565b5060a0820151613f3860a085018261395f565b5060c0820151613f4b60c0850182613cb2565b50505050565b5f60e082019050613f645f830184613ec5565b92915050565b5f82825260208201905092915050565b7f4c697374696e67206e6f742061637469766500000000000000000000000000005f82015250565b5f613fae601283613f6a565b9150613fb982613f7a565b602082019050919050565b5f6020820190508181035f830152613fdb81613fa2565b9050919050565b7f496e73756666696369656e74207061796d656e740000000000000000000000005f82015250565b5f614016601483613f6a565b915061402182613fe2565b602082019050919050565b5f6020820190508181035f8301526140438161400a565b9050919050565b7f43616e6e6f7420627579206f776e204e465400000000000000000000000000005f82015250565b5f61407e601283613f6a565b91506140898261404a565b602082019050919050565b5f6020820190508181035f8301526140ab81614072565b9050919050565b5f815190506140c081613811565b92915050565b5f602082840312156140db576140da6137d9565b5b5f6140e8848285016140b2565b91505092915050565b7f53656c6c6572206e6f206c6f6e676572206f776e73204e4654000000000000005f82015250565b5f614125601983613f6a565b9150614130826140f1565b602082019050919050565b5f6020820190508181035f83015261415281614119565b9050919050565b7f4e487b71000000000000000000000000000000000000000000000000000000005f52601160045260245ffd5b5f6141908261383b565b915061419b8361383b565b92508282039050818111156141b3576141b2614159565b5b92915050565b5f81905092915050565b50565b5f6141d15f836141b9565b91506141dc826141c3565b5f82019050919050565b5f6141f0826141c6565b9150819050919050565b7f526566756e64206661696c6564000000000000000000000000000000000000005f82015250565b5f61422e600d83613f6a565b9150614239826141fa565b602082019050919050565b5f6020820190508181035f83015261425b81614222565b9050919050565b5f6040820190506142755f8301856138ac565b61428260208301846138bb565b9392505050565b7f5072696365206d757374206265203e20300000000000000000000000000000005f82015250565b5f6142bd601183613f6a565b91506142c882614289565b602082019050919050565b5f6020820190508181035f8301526142ea816142b1565b9050919050565b7f496e76616c6964204e465420636f6e74726163740000000000000000000000005f82015250565b5f614325601483613f6a565b9150614330826142f1565b602082019050919050565b5f6020820190508181035f83015261435281614319565b9050919050565b7f4e6f74204e4654206f776e6572000000000000000000000000000000000000005f82015250565b5f61438d600d83613f6a565b915061439882614359565b602082019050919050565b5f6020820190508181035f8301526143ba81614381565b9050919050565b5f6040820190506143d45f8301856138ac565b6143e160208301846138ac565b9392505050565b6143f1816138ca565b81146143fb575f5ffd5b50565b5f8151905061440c816143e8565b92915050565b5f60208284031215614427576144266137d9565b5b5f614434848285016143fe565b91505092915050565b7f4d61726b6574706c616365206e6f7420617070726f76656400000000000000005f82015250565b5f614471601883613f6a565b915061447c8261443d565b602082019050919050565b5f6020820190508181035f83015261449e81614465565b9050919050565b7f4f72646572206e6f7420616374697665000000000000000000000000000000005f82015250565b5f6144d9601083613f6a565b91506144e4826144a5565b602082019050919050565b5f6020820190508181035f830152614506816144cd565b9050919050565b7f4e6f74206f72646572206f776e657200000000000000000000000000000000005f82015250565b5f614541600f83613f6a565b915061454c8261450d565b602082019050919050565b5f6020820190508181035f83015261456e81614535565b9050919050565b7f455448207472616e73666572206661696c6564000000000000000000000000005f82015250565b5f6145a9601383613f6a565b91506145b482614575565b602082019050919050565b5f6020820190508181035f8301526145d68161459d565b9050919050565b7f4e487b71000000000000000000000000000000000000000000000000000000005f52604160045260245ffd5b7f4e487b71000000000000000000000000000000000000000000000000000000005f52603260045260245ffd5b7f546f6b656e20646f6573206e6f742065786973740000000000000000000000005f82015250565b5f61466b601483613f6a565b915061467682614637565b602082019050919050565b5f6020820190508181035f8301526146988161465f565b9050919050565b7f43616e6e6f7420626964206f6e206f776e204e465400000000000000000000005f82015250565b5f6146d3601583613f6a565b91506146de8261469f565b602082019050919050565b5f6020820190508181035f830152614700816146c7565b9050919050565b5f6147118261383b565b91507fffffffffffffffffffffffffffffffffffffffffffffffffffffffffffffffff820361474357614742614159565b5b600182019050919050565b7f46656520746f6f206869676800000000000000000000000000000000000000005f82015250565b5f614782600c83613f6a565b915061478d8261474e565b602082019050919050565b5f6020820190508181035f8301526147af81614776565b9050919050565b5f6040820190506147c95f8301856138bb565b6147d660208301846138bb565b9392505050565b7f4e6f74206c697374696e67206f776e65720000000000000000000000000000005f82015250565b5f614811601183613f6a565b915061481c826147dd565b602082019050919050565b5f6020820190508181035f83015261483e81614805565b9050919050565b7f4e6f2062616c616e6365000000000000000000000000000000000000000000005f82015250565b5f614879600a83613f6a565b915061488482614845565b602082019050919050565b5f6020820190508181035f8301526148a68161486d565b9050919050565b7f5769746864726177206661696c656400000000000000000000000000000000005f82015250565b5f6148e1600f83613f6a565b91506148ec826148ad565b602082019050919050565b5f6020820190508181035f83015261490e816148d5565b9050919050565b7f496e76616c6964206164647265737300000000000000000000000000000000005f82015250565b5f614949600f83613f6a565b915061495482614915565b602082019050919050565b5f6020820190508181035f8301526149768161493d565b9050919050565b5f6060820190506149905f8301866138ac565b61499d60208301856138ac565b6149aa60408301846138bb565b949350505050565b7f4f776e61626c653a206e6577206f776e657220697320746865207a65726f20615f8201527f6464726573730000000000000000000000000000000000000000000000000000602082015250565b5f614a0c602683613f6a565b9150614a17826149b2565b604082019050919050565b5f6020820190508181035f830152614a3981614a00565b9050919050565b7f5265656e7472616e637947756172643a207265656e7472616e742063616c6c005f82015250565b5f614a74601f83613f6a565b9150614a7f82614a40565b602082019050919050565b5f6020820190508181035f830152614aa181614a68565b9050919050565b7f5061757361626c653a20706175736564000000000000000000000000000000005f82015250565b5f614adc601083613f6a565b9150614ae782614aa8565b602082019050919050565b5f6020820190508181035f830152614b0981614ad0565b9050919050565b5f614b1a8261383b565b9150614b258361383b565b9250828202614b338161383b565b91508282048414831517614b4a57614b49614159565b5b5092915050565b7f4e487b71000000000000000000000000000000000000000000000000000000005f52601260045260245ffd5b5f614b888261383b565b9150614b938361383b565b925082614ba357614ba2614b51565b5b828204905092915050565b5f81519050614bbc81613844565b92915050565b5f5f60408385031215614bd857614bd76137d9565b5b5f614be5858286016140b2565b9250506020614bf685828601614bae565b9150509250929050565b7f526f79616c7479207472616e73666572206661696c65640000000000000000005f82015250565b5f614c34601783613f6a565b9150614c3f82614c00565b602082019050919050565b5f6020820190508181035f830152614c6181614c28565b9050919050565b7f53656c6c6572207472616e73666572206661696c6564000000000000000000005f82015250565b5f614c9c601683613f6a565b9150614ca782614c68565b602082019050919050565b5f6020820190508181035f830152614cc981614c90565b9050919050565b7f466565207472616e73666572206661696c6564000000000000000000000000005f82015250565b5f614d04601383613f6a565b9150614d0f82614cd0565b602082019050919050565b5f6020820190508181035f830152614d3181614cf8565b9050919050565b7f4f776e61626c653a2063616c6c6572206973206e6f7420746865206f776e65725f82015250565b5f614d6c602083613f6a565b9150614d7782614d38565b602082019050919050565b5f6020820190508181035f830152614d9981614d60565b9050919050565b7f5061757361626c653a206e6f74207061757365640000000000000000000000005f82015250565b5f614dd4601483613f6a565b9150614ddf82614da0565b602082019050919050565b5f6020820190508181035f830152614e0181614dc8565b905091905056fea2646970667358221220c23e633e444476c5f6fb0595be7d95c38e6272a83b27d29cc92cf7f2d34b6b0764736f6c634300081c0033",
  "linkReferences": {},
  "deployedLinkReferences": {},
  "immutableReferences": {},
  "inputSourceName": "project/contracts/NFTMarketplace.sol",
  "buildInfoId": "solc-0_8_28-40224b30f5b8b6dfdeda0fd4c5820b53963441c8"
}